{
	"PublicationRegistry.sol": {
		"PublicationRegistryV2": {
			"abi": [
				{
					"anonymous": false,
					"inputs": [
						{
							"indexed": false,
							"internalType": "string",
							"name": "publicationId",
							"type": "string"
						},
						{
							"indexed": false,
							"internalType": "bytes32",
							"name": "hash",
							"type": "bytes32"
						},
						{
							"indexed": false,
							"internalType": "uint256",
							"name": "timestamp",
							"type": "uint256"
						}
					],
					"name": "PublicationStored",
					"type": "event"
				},
				{
					"inputs": [
						{
							"internalType": "string",
							"name": "publicationId",
							"type": "string"
						}
					],
					"name": "getRecord",
					"outputs": [
						{
							"internalType": "bytes32",
							"name": "hash",
							"type": "bytes32"
						},
						{
							"internalType": "uint256",
							"name": "timestamp",
							"type": "uint256"
						}
					],
					"stateMutability": "view",
					"type": "function"
				},
				{
					"inputs": [
						{
							"internalType": "bytes32",
							"name": "hash",
							"type": "bytes32"
						}
					],
					"name": "isHashStored",
					"outputs": [
						{
							"internalType": "bool",
							"name": "",
							"type": "bool"
						}
					],
					"stateMutability": "view",
					"type": "function"
				},
				{
					"inputs": [
						{
							"internalType": "string",
							"name": "publicationId",
							"type": "string"
						},
						{
							"internalType": "bytes32",
							"name": "hash",
							"type": "bytes32"
						}
					],
					"name": "storeHash",
					"outputs": [],
					"stateMutability": "nonpayable",
					"type": "function"
				}
			],
			"devdoc": {
				"kind": "dev",
				"methods": {},
				"version": 1
			},
			"evm": {
				"assembly": "    /* \"PublicationRegistry.sol\":58:1239  contract PublicationRegistryV2 {... */\n  mstore(0x40, 0x80)\n  callvalue\n  dup1\n  iszero\n  tag_1\n  jumpi\n  0x00\n  dup1\n  revert\ntag_1:\n  pop\n  dataSize(sub_0)\n  dup1\n  dataOffset(sub_0)\n  0x00\n  codecopy\n  0x00\n  return\nstop\n\nsub_0: assembly {\n        /* \"PublicationRegistry.sol\":58:1239  contract PublicationRegistryV2 {... */\n      mstore(0x40, 0x80)\n      callvalue\n      dup1\n      iszero\n      tag_1\n      jumpi\n      0x00\n      dup1\n      revert\n    tag_1:\n      pop\n      jumpi(tag_2, lt(calldatasize, 0x04))\n      shr(0xe0, calldataload(0x00))\n      dup1\n      0x11dd8845\n      eq\n      tag_3\n      jumpi\n      dup1\n      0x12a6f230\n      eq\n      tag_4\n      jumpi\n      dup1\n      0x30c6caa4\n      eq\n      tag_5\n      jumpi\n    tag_2:\n      0x00\n      dup1\n      revert\n        /* \"PublicationRegistry.sol\":886:1126  function getRecord(string calldata publicationId)... */\n    tag_3:\n      tag_6\n      0x04\n      dup1\n      calldatasize\n      sub\n      dup2\n      add\n      swap1\n      tag_7\n      swap2\n      swap1\n      tag_8\n      jump\t// in\n    tag_7:\n      tag_9\n      jump\t// in\n    tag_6:\n      mload(0x40)\n      tag_10\n      swap3\n      swap2\n      swap1\n      tag_11\n      jump\t// in\n    tag_10:\n      mload(0x40)\n      dup1\n      swap2\n      sub\n      swap1\n      return\n        /* \"PublicationRegistry.sol\":1132:1237  function isHashStored(bytes32 hash) external view returns (bool) {... */\n    tag_4:\n      tag_12\n      0x04\n      dup1\n      calldatasize\n      sub\n      dup2\n      add\n      swap1\n      tag_13\n      swap2\n      swap1\n      tag_14\n      jump\t// in\n    tag_13:\n      tag_15\n      jump\t// in\n    tag_12:\n      mload(0x40)\n      tag_16\n      swap2\n      swap1\n      tag_17\n      jump\t// in\n    tag_16:\n      mload(0x40)\n      dup1\n      swap2\n      sub\n      swap1\n      return\n        /* \"PublicationRegistry.sol\":459:880  function storeHash(string calldata publicationId, bytes32 hash) external {... */\n    tag_5:\n      tag_18\n      0x04\n      dup1\n      calldatasize\n      sub\n      dup2\n      add\n      swap1\n      tag_19\n      swap2\n      swap1\n      tag_20\n      jump\t// in\n    tag_19:\n      tag_21\n      jump\t// in\n    tag_18:\n      stop\n        /* \"PublicationRegistry.sol\":886:1126  function getRecord(string calldata publicationId)... */\n    tag_9:\n        /* \"PublicationRegistry.sol\":983:995  bytes32 hash */\n      0x00\n        /* \"PublicationRegistry.sol\":997:1014  uint256 timestamp */\n      dup1\n        /* \"PublicationRegistry.sol\":1030:1045  Record memory r */\n      0x00\n        /* \"PublicationRegistry.sol\":1048:1066  publicationRecords */\n      dup1\n        /* \"PublicationRegistry.sol\":1067:1080  publicationId */\n      dup6\n      dup6\n        /* \"PublicationRegistry.sol\":1048:1081  publicationRecords[publicationId] */\n      mload(0x40)\n      tag_23\n      swap3\n      swap2\n      swap1\n      tag_24\n      jump\t// in\n    tag_23:\n      swap1\n      dup2\n      mstore\n      0x20\n      add\n      mload(0x40)\n      dup1\n      swap2\n      sub\n      swap1\n      keccak256\n        /* \"PublicationRegistry.sol\":1030:1081  Record memory r = publicationRecords[publicationId] */\n      mload(0x40)\n      dup1\n      0x40\n      add\n      0x40\n      mstore\n      swap1\n      dup2\n      0x00\n      dup3\n      add\n      sload\n      dup2\n      mstore\n      0x20\n      add\n      0x01\n      dup3\n      add\n      sload\n      dup2\n      mstore\n      pop\n      pop\n      swap1\n      pop\n        /* \"PublicationRegistry.sol\":1099:1100  r */\n      dup1\n        /* \"PublicationRegistry.sol\":1099:1105  r.hash */\n      0x00\n      add\n      mload\n        /* \"PublicationRegistry.sol\":1107:1108  r */\n      dup2\n        /* \"PublicationRegistry.sol\":1107:1118  r.timestamp */\n      0x20\n      add\n      mload\n        /* \"PublicationRegistry.sol\":1091:1119  return (r.hash, r.timestamp) */\n      swap3\n      pop\n      swap3\n      pop\n      pop\n        /* \"PublicationRegistry.sol\":886:1126  function getRecord(string calldata publicationId)... */\n      swap3\n      pop\n      swap3\n      swap1\n      pop\n      jump\t// out\n        /* \"PublicationRegistry.sol\":1132:1237  function isHashStored(bytes32 hash) external view returns (bool) {... */\n    tag_15:\n        /* \"PublicationRegistry.sol\":1191:1195  bool */\n      0x00\n        /* \"PublicationRegistry.sol\":1214:1224  hashExists */\n      0x01\n        /* \"PublicationRegistry.sol\":1214:1230  hashExists[hash] */\n      0x00\n        /* \"PublicationRegistry.sol\":1225:1229  hash */\n      dup4\n        /* \"PublicationRegistry.sol\":1214:1230  hashExists[hash] */\n      dup2\n      mstore\n      0x20\n      add\n      swap1\n      dup2\n      mstore\n      0x20\n      add\n      0x00\n      keccak256\n      0x00\n      swap1\n      sload\n      swap1\n      0x0100\n      exp\n      swap1\n      div\n      0xff\n      and\n        /* \"PublicationRegistry.sol\":1207:1230  return hashExists[hash] */\n      swap1\n      pop\n        /* \"PublicationRegistry.sol\":1132:1237  function isHashStored(bytes32 hash) external view returns (bool) {... */\n      swap2\n      swap1\n      pop\n      jump\t// out\n        /* \"PublicationRegistry.sol\":459:880  function storeHash(string calldata publicationId, bytes32 hash) external {... */\n    tag_21:\n        /* \"PublicationRegistry.sol\":566:567  0 */\n      0x00\n        /* \"PublicationRegistry.sol\":558:568  bytes32(0) */\n      dup1\n      shl\n        /* \"PublicationRegistry.sol\":550:554  hash */\n      dup2\n        /* \"PublicationRegistry.sol\":550:568  hash != bytes32(0) */\n      sub\n        /* \"PublicationRegistry.sol\":542:585  require(hash != bytes32(0), \"Invalid hash\") */\n      tag_27\n      jumpi\n      mload(0x40)\n      0x08c379a000000000000000000000000000000000000000000000000000000000\n      dup2\n      mstore\n      0x04\n      add\n      tag_28\n      swap1\n      tag_29\n      jump\t// in\n    tag_28:\n      mload(0x40)\n      dup1\n      swap2\n      sub\n      swap1\n      revert\n    tag_27:\n        /* \"PublicationRegistry.sol\":604:614  hashExists */\n      0x01\n        /* \"PublicationRegistry.sol\":604:620  hashExists[hash] */\n      0x00\n        /* \"PublicationRegistry.sol\":615:619  hash */\n      dup3\n        /* \"PublicationRegistry.sol\":604:620  hashExists[hash] */\n      dup2\n      mstore\n      0x20\n      add\n      swap1\n      dup2\n      mstore\n      0x20\n      add\n      0x00\n      keccak256\n      0x00\n      swap1\n      sload\n      swap1\n      0x0100\n      exp\n      swap1\n      div\n      0xff\n      and\n        /* \"PublicationRegistry.sol\":603:620  !hashExists[hash] */\n      iszero\n        /* \"PublicationRegistry.sol\":595:639  require(!hashExists[hash], \"Duplicate hash\") */\n      tag_30\n      jumpi\n      mload(0x40)\n      0x08c379a000000000000000000000000000000000000000000000000000000000\n      dup2\n      mstore\n      0x04\n      add\n      tag_31\n      swap1\n      tag_32\n      jump\t// in\n    tag_31:\n      mload(0x40)\n      dup1\n      swap2\n      sub\n      swap1\n      revert\n    tag_30:\n        /* \"PublicationRegistry.sol\":686:768  Record({... */\n      mload(0x40)\n      dup1\n      0x40\n      add\n      0x40\n      mstore\n      dup1\n        /* \"PublicationRegistry.sol\":713:717  hash */\n      dup3\n        /* \"PublicationRegistry.sol\":686:768  Record({... */\n      dup2\n      mstore\n      0x20\n      add\n        /* \"PublicationRegistry.sol\":742:757  block.timestamp */\n      timestamp\n        /* \"PublicationRegistry.sol\":686:768  Record({... */\n      dup2\n      mstore\n      pop\n        /* \"PublicationRegistry.sol\":650:668  publicationRecords */\n      0x00\n        /* \"PublicationRegistry.sol\":669:682  publicationId */\n      dup5\n      dup5\n        /* \"PublicationRegistry.sol\":650:683  publicationRecords[publicationId] */\n      mload(0x40)\n      tag_33\n      swap3\n      swap2\n      swap1\n      tag_24\n      jump\t// in\n    tag_33:\n      swap1\n      dup2\n      mstore\n      0x20\n      add\n      mload(0x40)\n      dup1\n      swap2\n      sub\n      swap1\n      keccak256\n        /* \"PublicationRegistry.sol\":650:768  publicationRecords[publicationId] = Record({... */\n      0x00\n      dup3\n      add\n      mload\n      dup2\n      0x00\n      add\n      sstore\n      0x20\n      dup3\n      add\n      mload\n      dup2\n      0x01\n      add\n      sstore\n      swap1\n      pop\n      pop\n        /* \"PublicationRegistry.sol\":798:802  true */\n      0x01\n        /* \"PublicationRegistry.sol\":779:789  hashExists */\n      dup1\n        /* \"PublicationRegistry.sol\":779:795  hashExists[hash] */\n      0x00\n        /* \"PublicationRegistry.sol\":790:794  hash */\n      dup4\n        /* \"PublicationRegistry.sol\":779:795  hashExists[hash] */\n      dup2\n      mstore\n      0x20\n      add\n      swap1\n      dup2\n      mstore\n      0x20\n      add\n      0x00\n      keccak256\n      0x00\n        /* \"PublicationRegistry.sol\":779:802  hashExists[hash] = true */\n      0x0100\n      exp\n      dup2\n      sload\n      dup2\n      0xff\n      mul\n      not\n      and\n      swap1\n      dup4\n      iszero\n      iszero\n      mul\n      or\n      swap1\n      sstore\n      pop\n        /* \"PublicationRegistry.sol\":818:873  PublicationStored(publicationId, hash, block.timestamp) */\n      0xecfbfe8f27308a9dc537fb13d731dbbb58303324edb1efdc8381cfd433162363\n        /* \"PublicationRegistry.sol\":836:849  publicationId */\n      dup4\n      dup4\n        /* \"PublicationRegistry.sol\":851:855  hash */\n      dup4\n        /* \"PublicationRegistry.sol\":857:872  block.timestamp */\n      timestamp\n        /* \"PublicationRegistry.sol\":818:873  PublicationStored(publicationId, hash, block.timestamp) */\n      mload(0x40)\n      tag_34\n      swap5\n      swap4\n      swap3\n      swap2\n      swap1\n      tag_35\n      jump\t// in\n    tag_34:\n      mload(0x40)\n      dup1\n      swap2\n      sub\n      swap1\n      log1\n        /* \"PublicationRegistry.sol\":459:880  function storeHash(string calldata publicationId, bytes32 hash) external {... */\n      pop\n      pop\n      pop\n      jump\t// out\n        /* \"#utility.yul\":88:205   */\n    tag_37:\n        /* \"#utility.yul\":197:198   */\n      0x00\n        /* \"#utility.yul\":194:195   */\n      dup1\n        /* \"#utility.yul\":187:199   */\n      revert\n        /* \"#utility.yul\":211:328   */\n    tag_38:\n        /* \"#utility.yul\":320:321   */\n      0x00\n        /* \"#utility.yul\":317:318   */\n      dup1\n        /* \"#utility.yul\":310:322   */\n      revert\n        /* \"#utility.yul\":334:451   */\n    tag_39:\n        /* \"#utility.yul\":443:444   */\n      0x00\n        /* \"#utility.yul\":440:441   */\n      dup1\n        /* \"#utility.yul\":433:445   */\n      revert\n        /* \"#utility.yul\":457:574   */\n    tag_40:\n        /* \"#utility.yul\":566:567   */\n      0x00\n        /* \"#utility.yul\":563:564   */\n      dup1\n        /* \"#utility.yul\":556:568   */\n      revert\n        /* \"#utility.yul\":580:697   */\n    tag_41:\n        /* \"#utility.yul\":689:690   */\n      0x00\n        /* \"#utility.yul\":686:687   */\n      dup1\n        /* \"#utility.yul\":679:691   */\n      revert\n        /* \"#utility.yul\":717:1270   */\n    tag_42:\n        /* \"#utility.yul\":775:783   */\n      0x00\n        /* \"#utility.yul\":785:791   */\n      dup1\n        /* \"#utility.yul\":835:838   */\n      dup4\n        /* \"#utility.yul\":828:832   */\n      0x1f\n        /* \"#utility.yul\":820:826   */\n      dup5\n        /* \"#utility.yul\":816:833   */\n      add\n        /* \"#utility.yul\":812:839   */\n      slt\n        /* \"#utility.yul\":802:924   */\n      tag_69\n      jumpi\n        /* \"#utility.yul\":843:922   */\n      tag_70\n      tag_39\n      jump\t// in\n    tag_70:\n        /* \"#utility.yul\":802:924   */\n    tag_69:\n        /* \"#utility.yul\":956:962   */\n      dup3\n        /* \"#utility.yul\":943:963   */\n      calldataload\n        /* \"#utility.yul\":933:963   */\n      swap1\n      pop\n        /* \"#utility.yul\":986:1004   */\n      0xffffffffffffffff\n        /* \"#utility.yul\":978:984   */\n      dup2\n        /* \"#utility.yul\":975:1005   */\n      gt\n        /* \"#utility.yul\":972:1089   */\n      iszero\n      tag_71\n      jumpi\n        /* \"#utility.yul\":1008:1087   */\n      tag_72\n      tag_40\n      jump\t// in\n    tag_72:\n        /* \"#utility.yul\":972:1089   */\n    tag_71:\n        /* \"#utility.yul\":1122:1126   */\n      0x20\n        /* \"#utility.yul\":1114:1120   */\n      dup4\n        /* \"#utility.yul\":1110:1127   */\n      add\n        /* \"#utility.yul\":1098:1127   */\n      swap2\n      pop\n        /* \"#utility.yul\":1176:1179   */\n      dup4\n        /* \"#utility.yul\":1168:1172   */\n      0x01\n        /* \"#utility.yul\":1160:1166   */\n      dup3\n        /* \"#utility.yul\":1156:1173   */\n      mul\n        /* \"#utility.yul\":1146:1154   */\n      dup4\n        /* \"#utility.yul\":1142:1174   */\n      add\n        /* \"#utility.yul\":1139:1180   */\n      gt\n        /* \"#utility.yul\":1136:1264   */\n      iszero\n      tag_73\n      jumpi\n        /* \"#utility.yul\":1183:1262   */\n      tag_74\n      tag_41\n      jump\t// in\n    tag_74:\n        /* \"#utility.yul\":1136:1264   */\n    tag_73:\n        /* \"#utility.yul\":717:1270   */\n      swap3\n      pop\n      swap3\n      swap1\n      pop\n      jump\t// out\n        /* \"#utility.yul\":1276:1805   */\n    tag_8:\n        /* \"#utility.yul\":1347:1353   */\n      0x00\n        /* \"#utility.yul\":1355:1361   */\n      dup1\n        /* \"#utility.yul\":1404:1406   */\n      0x20\n        /* \"#utility.yul\":1392:1401   */\n      dup4\n        /* \"#utility.yul\":1383:1390   */\n      dup6\n        /* \"#utility.yul\":1379:1402   */\n      sub\n        /* \"#utility.yul\":1375:1407   */\n      slt\n        /* \"#utility.yul\":1372:1491   */\n      iszero\n      tag_76\n      jumpi\n        /* \"#utility.yul\":1410:1489   */\n      tag_77\n      tag_37\n      jump\t// in\n    tag_77:\n        /* \"#utility.yul\":1372:1491   */\n    tag_76:\n        /* \"#utility.yul\":1558:1559   */\n      0x00\n        /* \"#utility.yul\":1547:1556   */\n      dup4\n        /* \"#utility.yul\":1543:1560   */\n      add\n        /* \"#utility.yul\":1530:1561   */\n      calldataload\n        /* \"#utility.yul\":1588:1606   */\n      0xffffffffffffffff\n        /* \"#utility.yul\":1580:1586   */\n      dup2\n        /* \"#utility.yul\":1577:1607   */\n      gt\n        /* \"#utility.yul\":1574:1691   */\n      iszero\n      tag_78\n      jumpi\n        /* \"#utility.yul\":1610:1689   */\n      tag_79\n      tag_38\n      jump\t// in\n    tag_79:\n        /* \"#utility.yul\":1574:1691   */\n    tag_78:\n        /* \"#utility.yul\":1723:1788   */\n      tag_80\n        /* \"#utility.yul\":1780:1787   */\n      dup6\n        /* \"#utility.yul\":1771:1777   */\n      dup3\n        /* \"#utility.yul\":1760:1769   */\n      dup7\n        /* \"#utility.yul\":1756:1778   */\n      add\n        /* \"#utility.yul\":1723:1788   */\n      tag_42\n      jump\t// in\n    tag_80:\n        /* \"#utility.yul\":1705:1788   */\n      swap3\n      pop\n      swap3\n      pop\n        /* \"#utility.yul\":1501:1798   */\n      pop\n        /* \"#utility.yul\":1276:1805   */\n      swap3\n      pop\n      swap3\n      swap1\n      pop\n      jump\t// out\n        /* \"#utility.yul\":1811:1888   */\n    tag_43:\n        /* \"#utility.yul\":1848:1855   */\n      0x00\n        /* \"#utility.yul\":1877:1882   */\n      dup2\n        /* \"#utility.yul\":1866:1882   */\n      swap1\n      pop\n        /* \"#utility.yul\":1811:1888   */\n      swap2\n      swap1\n      pop\n      jump\t// out\n        /* \"#utility.yul\":1894:2012   */\n    tag_44:\n        /* \"#utility.yul\":1981:2005   */\n      tag_83\n        /* \"#utility.yul\":1999:2004   */\n      dup2\n        /* \"#utility.yul\":1981:2005   */\n      tag_43\n      jump\t// in\n    tag_83:\n        /* \"#utility.yul\":1976:1979   */\n      dup3\n        /* \"#utility.yul\":1969:2006   */\n      mstore\n        /* \"#utility.yul\":1894:2012   */\n      pop\n      pop\n      jump\t// out\n        /* \"#utility.yul\":2018:2095   */\n    tag_45:\n        /* \"#utility.yul\":2055:2062   */\n      0x00\n        /* \"#utility.yul\":2084:2089   */\n      dup2\n        /* \"#utility.yul\":2073:2089   */\n      swap1\n      pop\n        /* \"#utility.yul\":2018:2095   */\n      swap2\n      swap1\n      pop\n      jump\t// out\n        /* \"#utility.yul\":2101:2219   */\n    tag_46:\n        /* \"#utility.yul\":2188:2212   */\n      tag_86\n        /* \"#utility.yul\":2206:2211   */\n      dup2\n        /* \"#utility.yul\":2188:2212   */\n      tag_45\n      jump\t// in\n    tag_86:\n        /* \"#utility.yul\":2183:2186   */\n      dup3\n        /* \"#utility.yul\":2176:2213   */\n      mstore\n        /* \"#utility.yul\":2101:2219   */\n      pop\n      pop\n      jump\t// out\n        /* \"#utility.yul\":2225:2557   */\n    tag_11:\n        /* \"#utility.yul\":2346:2350   */\n      0x00\n        /* \"#utility.yul\":2384:2386   */\n      0x40\n        /* \"#utility.yul\":2373:2382   */\n      dup3\n        /* \"#utility.yul\":2369:2387   */\n      add\n        /* \"#utility.yul\":2361:2387   */\n      swap1\n      pop\n        /* \"#utility.yul\":2397:2468   */\n      tag_88\n        /* \"#utility.yul\":2465:2466   */\n      0x00\n        /* \"#utility.yul\":2454:2463   */\n      dup4\n        /* \"#utility.yul\":2450:2467   */\n      add\n        /* \"#utility.yul\":2441:2447   */\n      dup6\n        /* \"#utility.yul\":2397:2468   */\n      tag_44\n      jump\t// in\n    tag_88:\n        /* \"#utility.yul\":2478:2550   */\n      tag_89\n        /* \"#utility.yul\":2546:2548   */\n      0x20\n        /* \"#utility.yul\":2535:2544   */\n      dup4\n        /* \"#utility.yul\":2531:2549   */\n      add\n        /* \"#utility.yul\":2522:2528   */\n      dup5\n        /* \"#utility.yul\":2478:2550   */\n      tag_46\n      jump\t// in\n    tag_89:\n        /* \"#utility.yul\":2225:2557   */\n      swap4\n      swap3\n      pop\n      pop\n      pop\n      jump\t// out\n        /* \"#utility.yul\":2563:2685   */\n    tag_47:\n        /* \"#utility.yul\":2636:2660   */\n      tag_91\n        /* \"#utility.yul\":2654:2659   */\n      dup2\n        /* \"#utility.yul\":2636:2660   */\n      tag_43\n      jump\t// in\n    tag_91:\n        /* \"#utility.yul\":2629:2634   */\n      dup2\n        /* \"#utility.yul\":2626:2661   */\n      eq\n        /* \"#utility.yul\":2616:2679   */\n      tag_92\n      jumpi\n        /* \"#utility.yul\":2675:2676   */\n      0x00\n        /* \"#utility.yul\":2672:2673   */\n      dup1\n        /* \"#utility.yul\":2665:2677   */\n      revert\n        /* \"#utility.yul\":2616:2679   */\n    tag_92:\n        /* \"#utility.yul\":2563:2685   */\n      pop\n      jump\t// out\n        /* \"#utility.yul\":2691:2830   */\n    tag_48:\n        /* \"#utility.yul\":2737:2742   */\n      0x00\n        /* \"#utility.yul\":2775:2781   */\n      dup2\n        /* \"#utility.yul\":2762:2782   */\n      calldataload\n        /* \"#utility.yul\":2753:2782   */\n      swap1\n      pop\n        /* \"#utility.yul\":2791:2824   */\n      tag_94\n        /* \"#utility.yul\":2818:2823   */\n      dup2\n        /* \"#utility.yul\":2791:2824   */\n      tag_47\n      jump\t// in\n    tag_94:\n        /* \"#utility.yul\":2691:2830   */\n      swap3\n      swap2\n      pop\n      pop\n      jump\t// out\n        /* \"#utility.yul\":2836:3165   */\n    tag_14:\n        /* \"#utility.yul\":2895:2901   */\n      0x00\n        /* \"#utility.yul\":2944:2946   */\n      0x20\n        /* \"#utility.yul\":2932:2941   */\n      dup3\n        /* \"#utility.yul\":2923:2930   */\n      dup5\n        /* \"#utility.yul\":2919:2942   */\n      sub\n        /* \"#utility.yul\":2915:2947   */\n      slt\n        /* \"#utility.yul\":2912:3031   */\n      iszero\n      tag_96\n      jumpi\n        /* \"#utility.yul\":2950:3029   */\n      tag_97\n      tag_37\n      jump\t// in\n    tag_97:\n        /* \"#utility.yul\":2912:3031   */\n    tag_96:\n        /* \"#utility.yul\":3070:3071   */\n      0x00\n        /* \"#utility.yul\":3095:3148   */\n      tag_98\n        /* \"#utility.yul\":3140:3147   */\n      dup5\n        /* \"#utility.yul\":3131:3137   */\n      dup3\n        /* \"#utility.yul\":3120:3129   */\n      dup6\n        /* \"#utility.yul\":3116:3138   */\n      add\n        /* \"#utility.yul\":3095:3148   */\n      tag_48\n      jump\t// in\n    tag_98:\n        /* \"#utility.yul\":3085:3148   */\n      swap2\n      pop\n        /* \"#utility.yul\":3041:3158   */\n      pop\n        /* \"#utility.yul\":2836:3165   */\n      swap3\n      swap2\n      pop\n      pop\n      jump\t// out\n        /* \"#utility.yul\":3171:3261   */\n    tag_49:\n        /* \"#utility.yul\":3205:3212   */\n      0x00\n        /* \"#utility.yul\":3248:3253   */\n      dup2\n        /* \"#utility.yul\":3241:3254   */\n      iszero\n        /* \"#utility.yul\":3234:3255   */\n      iszero\n        /* \"#utility.yul\":3223:3255   */\n      swap1\n      pop\n        /* \"#utility.yul\":3171:3261   */\n      swap2\n      swap1\n      pop\n      jump\t// out\n        /* \"#utility.yul\":3267:3376   */\n    tag_50:\n        /* \"#utility.yul\":3348:3369   */\n      tag_101\n        /* \"#utility.yul\":3363:3368   */\n      dup2\n        /* \"#utility.yul\":3348:3369   */\n      tag_49\n      jump\t// in\n    tag_101:\n        /* \"#utility.yul\":3343:3346   */\n      dup3\n        /* \"#utility.yul\":3336:3370   */\n      mstore\n        /* \"#utility.yul\":3267:3376   */\n      pop\n      pop\n      jump\t// out\n        /* \"#utility.yul\":3382:3592   */\n    tag_17:\n        /* \"#utility.yul\":3469:3473   */\n      0x00\n        /* \"#utility.yul\":3507:3509   */\n      0x20\n        /* \"#utility.yul\":3496:3505   */\n      dup3\n        /* \"#utility.yul\":3492:3510   */\n      add\n        /* \"#utility.yul\":3484:3510   */\n      swap1\n      pop\n        /* \"#utility.yul\":3520:3585   */\n      tag_103\n        /* \"#utility.yul\":3582:3583   */\n      0x00\n        /* \"#utility.yul\":3571:3580   */\n      dup4\n        /* \"#utility.yul\":3567:3584   */\n      add\n        /* \"#utility.yul\":3558:3564   */\n      dup5\n        /* \"#utility.yul\":3520:3585   */\n      tag_50\n      jump\t// in\n    tag_103:\n        /* \"#utility.yul\":3382:3592   */\n      swap3\n      swap2\n      pop\n      pop\n      jump\t// out\n        /* \"#utility.yul\":3598:4272   */\n    tag_20:\n        /* \"#utility.yul\":3678:3684   */\n      0x00\n        /* \"#utility.yul\":3686:3692   */\n      dup1\n        /* \"#utility.yul\":3694:3700   */\n      0x00\n        /* \"#utility.yul\":3743:3745   */\n      0x40\n        /* \"#utility.yul\":3731:3740   */\n      dup5\n        /* \"#utility.yul\":3722:3729   */\n      dup7\n        /* \"#utility.yul\":3718:3741   */\n      sub\n        /* \"#utility.yul\":3714:3746   */\n      slt\n        /* \"#utility.yul\":3711:3830   */\n      iszero\n      tag_105\n      jumpi\n        /* \"#utility.yul\":3749:3828   */\n      tag_106\n      tag_37\n      jump\t// in\n    tag_106:\n        /* \"#utility.yul\":3711:3830   */\n    tag_105:\n        /* \"#utility.yul\":3897:3898   */\n      0x00\n        /* \"#utility.yul\":3886:3895   */\n      dup5\n        /* \"#utility.yul\":3882:3899   */\n      add\n        /* \"#utility.yul\":3869:3900   */\n      calldataload\n        /* \"#utility.yul\":3927:3945   */\n      0xffffffffffffffff\n        /* \"#utility.yul\":3919:3925   */\n      dup2\n        /* \"#utility.yul\":3916:3946   */\n      gt\n        /* \"#utility.yul\":3913:4030   */\n      iszero\n      tag_107\n      jumpi\n        /* \"#utility.yul\":3949:4028   */\n      tag_108\n      tag_38\n      jump\t// in\n    tag_108:\n        /* \"#utility.yul\":3913:4030   */\n    tag_107:\n        /* \"#utility.yul\":4062:4127   */\n      tag_109\n        /* \"#utility.yul\":4119:4126   */\n      dup7\n        /* \"#utility.yul\":4110:4116   */\n      dup3\n        /* \"#utility.yul\":4099:4108   */\n      dup8\n        /* \"#utility.yul\":4095:4117   */\n      add\n        /* \"#utility.yul\":4062:4127   */\n      tag_42\n      jump\t// in\n    tag_109:\n        /* \"#utility.yul\":4044:4127   */\n      swap4\n      pop\n      swap4\n      pop\n        /* \"#utility.yul\":3840:4137   */\n      pop\n        /* \"#utility.yul\":4176:4178   */\n      0x20\n        /* \"#utility.yul\":4202:4255   */\n      tag_110\n        /* \"#utility.yul\":4247:4254   */\n      dup7\n        /* \"#utility.yul\":4238:4244   */\n      dup3\n        /* \"#utility.yul\":4227:4236   */\n      dup8\n        /* \"#utility.yul\":4223:4245   */\n      add\n        /* \"#utility.yul\":4202:4255   */\n      tag_48\n      jump\t// in\n    tag_110:\n        /* \"#utility.yul\":4192:4255   */\n      swap2\n      pop\n        /* \"#utility.yul\":4147:4265   */\n      pop\n        /* \"#utility.yul\":3598:4272   */\n      swap3\n      pop\n      swap3\n      pop\n      swap3\n      jump\t// out\n        /* \"#utility.yul\":4278:4426   */\n    tag_51:\n        /* \"#utility.yul\":4380:4391   */\n      0x00\n        /* \"#utility.yul\":4417:4420   */\n      dup2\n        /* \"#utility.yul\":4402:4420   */\n      swap1\n      pop\n        /* \"#utility.yul\":4278:4426   */\n      swap3\n      swap2\n      pop\n      pop\n      jump\t// out\n        /* \"#utility.yul\":4432:4578   */\n    tag_52:\n        /* \"#utility.yul\":4529:4535   */\n      dup3\n        /* \"#utility.yul\":4524:4527   */\n      dup2\n        /* \"#utility.yul\":4519:4522   */\n      dup4\n        /* \"#utility.yul\":4506:4536   */\n      calldatacopy\n        /* \"#utility.yul\":4570:4571   */\n      0x00\n        /* \"#utility.yul\":4561:4567   */\n      dup4\n        /* \"#utility.yul\":4556:4559   */\n      dup4\n        /* \"#utility.yul\":4552:4568   */\n      add\n        /* \"#utility.yul\":4545:4572   */\n      mstore\n        /* \"#utility.yul\":4432:4578   */\n      pop\n      pop\n      pop\n      jump\t// out\n        /* \"#utility.yul\":4608:4938   */\n    tag_53:\n        /* \"#utility.yul\":4724:4727   */\n      0x00\n        /* \"#utility.yul\":4745:4834   */\n      tag_114\n        /* \"#utility.yul\":4827:4833   */\n      dup4\n        /* \"#utility.yul\":4822:4825   */\n      dup6\n        /* \"#utility.yul\":4745:4834   */\n      tag_51\n      jump\t// in\n    tag_114:\n        /* \"#utility.yul\":4738:4834   */\n      swap4\n      pop\n        /* \"#utility.yul\":4844:4900   */\n      tag_115\n        /* \"#utility.yul\":4893:4899   */\n      dup4\n        /* \"#utility.yul\":4888:4891   */\n      dup6\n        /* \"#utility.yul\":4881:4886   */\n      dup5\n        /* \"#utility.yul\":4844:4900   */\n      tag_52\n      jump\t// in\n    tag_115:\n        /* \"#utility.yul\":4925:4931   */\n      dup3\n        /* \"#utility.yul\":4920:4923   */\n      dup5\n        /* \"#utility.yul\":4916:4932   */\n      add\n        /* \"#utility.yul\":4909:4932   */\n      swap1\n      pop\n        /* \"#utility.yul\":4608:4938   */\n      swap4\n      swap3\n      pop\n      pop\n      pop\n      jump\t// out\n        /* \"#utility.yul\":4944:5239   */\n    tag_24:\n        /* \"#utility.yul\":5086:5089   */\n      0x00\n        /* \"#utility.yul\":5108:5213   */\n      tag_117\n        /* \"#utility.yul\":5209:5212   */\n      dup3\n        /* \"#utility.yul\":5200:5206   */\n      dup5\n        /* \"#utility.yul\":5192:5198   */\n      dup7\n        /* \"#utility.yul\":5108:5213   */\n      tag_53\n      jump\t// in\n    tag_117:\n        /* \"#utility.yul\":5101:5213   */\n      swap2\n      pop\n        /* \"#utility.yul\":5230:5233   */\n      dup2\n        /* \"#utility.yul\":5223:5233   */\n      swap1\n      pop\n        /* \"#utility.yul\":4944:5239   */\n      swap4\n      swap3\n      pop\n      pop\n      pop\n      jump\t// out\n        /* \"#utility.yul\":5245:5414   */\n    tag_54:\n        /* \"#utility.yul\":5329:5340   */\n      0x00\n        /* \"#utility.yul\":5363:5369   */\n      dup3\n        /* \"#utility.yul\":5358:5361   */\n      dup3\n        /* \"#utility.yul\":5351:5370   */\n      mstore\n        /* \"#utility.yul\":5403:5407   */\n      0x20\n        /* \"#utility.yul\":5398:5401   */\n      dup3\n        /* \"#utility.yul\":5394:5408   */\n      add\n        /* \"#utility.yul\":5379:5408   */\n      swap1\n      pop\n        /* \"#utility.yul\":5245:5414   */\n      swap3\n      swap2\n      pop\n      pop\n      jump\t// out\n        /* \"#utility.yul\":5420:5582   */\n    tag_55:\n        /* \"#utility.yul\":5560:5574   */\n      0x496e76616c696420686173680000000000000000000000000000000000000000\n        /* \"#utility.yul\":5556:5557   */\n      0x00\n        /* \"#utility.yul\":5548:5554   */\n      dup3\n        /* \"#utility.yul\":5544:5558   */\n      add\n        /* \"#utility.yul\":5537:5575   */\n      mstore\n        /* \"#utility.yul\":5420:5582   */\n      pop\n      jump\t// out\n        /* \"#utility.yul\":5588:5954   */\n    tag_56:\n        /* \"#utility.yul\":5730:5733   */\n      0x00\n        /* \"#utility.yul\":5751:5818   */\n      tag_121\n        /* \"#utility.yul\":5815:5817   */\n      0x0c\n        /* \"#utility.yul\":5810:5813   */\n      dup4\n        /* \"#utility.yul\":5751:5818   */\n      tag_54\n      jump\t// in\n    tag_121:\n        /* \"#utility.yul\":5744:5818   */\n      swap2\n      pop\n        /* \"#utility.yul\":5827:5920   */\n      tag_122\n        /* \"#utility.yul\":5916:5919   */\n      dup3\n        /* \"#utility.yul\":5827:5920   */\n      tag_55\n      jump\t// in\n    tag_122:\n        /* \"#utility.yul\":5945:5947   */\n      0x20\n        /* \"#utility.yul\":5940:5943   */\n      dup3\n        /* \"#utility.yul\":5936:5948   */\n      add\n        /* \"#utility.yul\":5929:5948   */\n      swap1\n      pop\n        /* \"#utility.yul\":5588:5954   */\n      swap2\n      swap1\n      pop\n      jump\t// out\n        /* \"#utility.yul\":5960:6379   */\n    tag_29:\n        /* \"#utility.yul\":6126:6130   */\n      0x00\n        /* \"#utility.yul\":6164:6166   */\n      0x20\n        /* \"#utility.yul\":6153:6162   */\n      dup3\n        /* \"#utility.yul\":6149:6167   */\n      add\n        /* \"#utility.yul\":6141:6167   */\n      swap1\n      pop\n        /* \"#utility.yul\":6213:6222   */\n      dup2\n        /* \"#utility.yul\":6207:6211   */\n      dup2\n        /* \"#utility.yul\":6203:6223   */\n      sub\n        /* \"#utility.yul\":6199:6200   */\n      0x00\n        /* \"#utility.yul\":6188:6197   */\n      dup4\n        /* \"#utility.yul\":6184:6201   */\n      add\n        /* \"#utility.yul\":6177:6224   */\n      mstore\n        /* \"#utility.yul\":6241:6372   */\n      tag_124\n        /* \"#utility.yul\":6367:6371   */\n      dup2\n        /* \"#utility.yul\":6241:6372   */\n      tag_56\n      jump\t// in\n    tag_124:\n        /* \"#utility.yul\":6233:6372   */\n      swap1\n      pop\n        /* \"#utility.yul\":5960:6379   */\n      swap2\n      swap1\n      pop\n      jump\t// out\n        /* \"#utility.yul\":6385:6549   */\n    tag_57:\n        /* \"#utility.yul\":6525:6541   */\n      0x4475706c69636174652068617368000000000000000000000000000000000000\n        /* \"#utility.yul\":6521:6522   */\n      0x00\n        /* \"#utility.yul\":6513:6519   */\n      dup3\n        /* \"#utility.yul\":6509:6523   */\n      add\n        /* \"#utility.yul\":6502:6542   */\n      mstore\n        /* \"#utility.yul\":6385:6549   */\n      pop\n      jump\t// out\n        /* \"#utility.yul\":6555:6921   */\n    tag_58:\n        /* \"#utility.yul\":6697:6700   */\n      0x00\n        /* \"#utility.yul\":6718:6785   */\n      tag_127\n        /* \"#utility.yul\":6782:6784   */\n      0x0e\n        /* \"#utility.yul\":6777:6780   */\n      dup4\n        /* \"#utility.yul\":6718:6785   */\n      tag_54\n      jump\t// in\n    tag_127:\n        /* \"#utility.yul\":6711:6785   */\n      swap2\n      pop\n        /* \"#utility.yul\":6794:6887   */\n      tag_128\n        /* \"#utility.yul\":6883:6886   */\n      dup3\n        /* \"#utility.yul\":6794:6887   */\n      tag_57\n      jump\t// in\n    tag_128:\n        /* \"#utility.yul\":6912:6914   */\n      0x20\n        /* \"#utility.yul\":6907:6910   */\n      dup3\n        /* \"#utility.yul\":6903:6915   */\n      add\n        /* \"#utility.yul\":6896:6915   */\n      swap1\n      pop\n        /* \"#utility.yul\":6555:6921   */\n      swap2\n      swap1\n      pop\n      jump\t// out\n        /* \"#utility.yul\":6927:7346   */\n    tag_32:\n        /* \"#utility.yul\":7093:7097   */\n      0x00\n        /* \"#utility.yul\":7131:7133   */\n      0x20\n        /* \"#utility.yul\":7120:7129   */\n      dup3\n        /* \"#utility.yul\":7116:7134   */\n      add\n        /* \"#utility.yul\":7108:7134   */\n      swap1\n      pop\n        /* \"#utility.yul\":7180:7189   */\n      dup2\n        /* \"#utility.yul\":7174:7178   */\n      dup2\n        /* \"#utility.yul\":7170:7190   */\n      sub\n        /* \"#utility.yul\":7166:7167   */\n      0x00\n        /* \"#utility.yul\":7155:7164   */\n      dup4\n        /* \"#utility.yul\":7151:7168   */\n      add\n        /* \"#utility.yul\":7144:7191   */\n      mstore\n        /* \"#utility.yul\":7208:7339   */\n      tag_130\n        /* \"#utility.yul\":7334:7338   */\n      dup2\n        /* \"#utility.yul\":7208:7339   */\n      tag_58\n      jump\t// in\n    tag_130:\n        /* \"#utility.yul\":7200:7339   */\n      swap1\n      pop\n        /* \"#utility.yul\":6927:7346   */\n      swap2\n      swap1\n      pop\n      jump\t// out\n        /* \"#utility.yul\":7352:7454   */\n    tag_59:\n        /* \"#utility.yul\":7393:7399   */\n      0x00\n        /* \"#utility.yul\":7444:7446   */\n      0x1f\n        /* \"#utility.yul\":7440:7447   */\n      not\n        /* \"#utility.yul\":7435:7437   */\n      0x1f\n        /* \"#utility.yul\":7428:7433   */\n      dup4\n        /* \"#utility.yul\":7424:7438   */\n      add\n        /* \"#utility.yul\":7420:7448   */\n      and\n        /* \"#utility.yul\":7410:7448   */\n      swap1\n      pop\n        /* \"#utility.yul\":7352:7454   */\n      swap2\n      swap1\n      pop\n      jump\t// out\n        /* \"#utility.yul\":7484:7801   */\n    tag_60:\n        /* \"#utility.yul\":7582:7585   */\n      0x00\n        /* \"#utility.yul\":7603:7674   */\n      tag_133\n        /* \"#utility.yul\":7667:7673   */\n      dup4\n        /* \"#utility.yul\":7662:7665   */\n      dup6\n        /* \"#utility.yul\":7603:7674   */\n      tag_54\n      jump\t// in\n    tag_133:\n        /* \"#utility.yul\":7596:7674   */\n      swap4\n      pop\n        /* \"#utility.yul\":7684:7740   */\n      tag_134\n        /* \"#utility.yul\":7733:7739   */\n      dup4\n        /* \"#utility.yul\":7728:7731   */\n      dup6\n        /* \"#utility.yul\":7721:7726   */\n      dup5\n        /* \"#utility.yul\":7684:7740   */\n      tag_52\n      jump\t// in\n    tag_134:\n        /* \"#utility.yul\":7765:7794   */\n      tag_135\n        /* \"#utility.yul\":7787:7793   */\n      dup4\n        /* \"#utility.yul\":7765:7794   */\n      tag_59\n      jump\t// in\n    tag_135:\n        /* \"#utility.yul\":7760:7763   */\n      dup5\n        /* \"#utility.yul\":7756:7795   */\n      add\n        /* \"#utility.yul\":7749:7795   */\n      swap1\n      pop\n        /* \"#utility.yul\":7484:7801   */\n      swap4\n      swap3\n      pop\n      pop\n      pop\n      jump\t// out\n        /* \"#utility.yul\":7807:8360   */\n    tag_35:\n        /* \"#utility.yul\":7986:7990   */\n      0x00\n        /* \"#utility.yul\":8024:8026   */\n      0x60\n        /* \"#utility.yul\":8013:8022   */\n      dup3\n        /* \"#utility.yul\":8009:8027   */\n      add\n        /* \"#utility.yul\":8001:8027   */\n      swap1\n      pop\n        /* \"#utility.yul\":8073:8082   */\n      dup2\n        /* \"#utility.yul\":8067:8071   */\n      dup2\n        /* \"#utility.yul\":8063:8083   */\n      sub\n        /* \"#utility.yul\":8059:8060   */\n      0x00\n        /* \"#utility.yul\":8048:8057   */\n      dup4\n        /* \"#utility.yul\":8044:8061   */\n      add\n        /* \"#utility.yul\":8037:8084   */\n      mstore\n        /* \"#utility.yul\":8101:8189   */\n      tag_137\n        /* \"#utility.yul\":8184:8188   */\n      dup2\n        /* \"#utility.yul\":8175:8181   */\n      dup7\n        /* \"#utility.yul\":8167:8173   */\n      dup9\n        /* \"#utility.yul\":8101:8189   */\n      tag_60\n      jump\t// in\n    tag_137:\n        /* \"#utility.yul\":8093:8189   */\n      swap1\n      pop\n        /* \"#utility.yul\":8199:8271   */\n      tag_138\n        /* \"#utility.yul\":8267:8269   */\n      0x20\n        /* \"#utility.yul\":8256:8265   */\n      dup4\n        /* \"#utility.yul\":8252:8270   */\n      add\n        /* \"#utility.yul\":8243:8249   */\n      dup6\n        /* \"#utility.yul\":8199:8271   */\n      tag_44\n      jump\t// in\n    tag_138:\n        /* \"#utility.yul\":8281:8353   */\n      tag_139\n        /* \"#utility.yul\":8349:8351   */\n      0x40\n        /* \"#utility.yul\":8338:8347   */\n      dup4\n        /* \"#utility.yul\":8334:8352   */\n      add\n        /* \"#utility.yul\":8325:8331   */\n      dup5\n        /* \"#utility.yul\":8281:8353   */\n      tag_46\n      jump\t// in\n    tag_139:\n        /* \"#utility.yul\":7807:8360   */\n      swap6\n      swap5\n      pop\n      pop\n      pop\n      pop\n      pop\n      jump\t// out\n\n    auxdata: 0xa2646970667358221220aa92c011f06094f6701a388c0725f8f4f703b4533ae44842a04c4d83ec7b8ae164736f6c63430008140033\n}\n",
				"bytecode": {
					"linkReferences": {},
					"object": "608060405234801561001057600080fd5b506106a2806100206000396000f3fe608060405234801561001057600080fd5b50600436106100415760003560e01c806311dd88451461004657806312a6f2301461007757806330c6caa4146100a7575b600080fd5b610060600480360381019061005b9190610316565b6100c3565b60405161006e929190610395565b60405180910390f35b610091600480360381019061008c91906103ea565b61011e565b60405161009e9190610432565b60405180910390f35b6100c160048036038101906100bc919061044d565b610148565b005b60008060008085856040516100d99291906104ec565b90815260200160405180910390206040518060400160405290816000820154815260200160018201548152505090508060000151816020015192509250509250929050565b60006001600083815260200190815260200160002060009054906101000a900460ff169050919050565b6000801b810361018d576040517f08c379a000000000000000000000000000000000000000000000000000000000815260040161018490610562565b60405180910390fd5b6001600082815260200190815260200160002060009054906101000a900460ff16156101ee576040517f08c379a00000000000000000000000000000000000000000000000000000000081526004016101e5906105ce565b60405180910390fd5b604051806040016040528082815260200142815250600084846040516102159291906104ec565b90815260200160405180910390206000820151816000015560208201518160010155905050600180600083815260200190815260200160002060006101000a81548160ff0219169083151502179055507fecfbfe8f27308a9dc537fb13d731dbbb58303324edb1efdc8381cfd4331623638383834260405161029a949392919061062c565b60405180910390a1505050565b600080fd5b600080fd5b600080fd5b600080fd5b600080fd5b60008083601f8401126102d6576102d56102b1565b5b8235905067ffffffffffffffff8111156102f3576102f26102b6565b5b60208301915083600182028301111561030f5761030e6102bb565b5b9250929050565b6000806020838503121561032d5761032c6102a7565b5b600083013567ffffffffffffffff81111561034b5761034a6102ac565b5b610357858286016102c0565b92509250509250929050565b6000819050919050565b61037681610363565b82525050565b6000819050919050565b61038f8161037c565b82525050565b60006040820190506103aa600083018561036d565b6103b76020830184610386565b9392505050565b6103c781610363565b81146103d257600080fd5b50565b6000813590506103e4816103be565b92915050565b600060208284031215610400576103ff6102a7565b5b600061040e848285016103d5565b91505092915050565b60008115159050919050565b61042c81610417565b82525050565b60006020820190506104476000830184610423565b92915050565b600080600060408486031215610466576104656102a7565b5b600084013567ffffffffffffffff811115610484576104836102ac565b5b610490868287016102c0565b935093505060206104a3868287016103d5565b9150509250925092565b600081905092915050565b82818337600083830152505050565b60006104d383856104ad565b93506104e08385846104b8565b82840190509392505050565b60006104f98284866104c7565b91508190509392505050565b600082825260208201905092915050565b7f496e76616c696420686173680000000000000000000000000000000000000000600082015250565b600061054c600c83610505565b915061055782610516565b602082019050919050565b6000602082019050818103600083015261057b8161053f565b9050919050565b7f4475706c69636174652068617368000000000000000000000000000000000000600082015250565b60006105b8600e83610505565b91506105c382610582565b602082019050919050565b600060208201905081810360008301526105e7816105ab565b9050919050565b6000601f19601f8301169050919050565b600061060b8385610505565b93506106188385846104b8565b610621836105ee565b840190509392505050565b600060608201905081810360008301526106478186886105ff565b9050610656602083018561036d565b6106636040830184610386565b9594505050505056fea2646970667358221220aa92c011f06094f6701a388c0725f8f4f703b4533ae44842a04c4d83ec7b8ae164736f6c63430008140033",
					"opcodes": "PUSH1 0x80 PUSH1 0x40 MSTORE CALLVALUE DUP1 ISZERO PUSH2 0x10 JUMPI PUSH1 0x0 DUP1 REVERT JUMPDEST POP PUSH2 0x6A2 DUP1 PUSH2 0x20 PUSH1 0x0 CODECOPY PUSH1 0x0 RETURN INVALID PUSH1 0x80 PUSH1 0x40 MSTORE CALLVALUE DUP1 ISZERO PUSH2 0x10 JUMPI PUSH1 0x0 DUP1 REVERT JUMPDEST POP PUSH1 0x4 CALLDATASIZE LT PUSH2 0x41 JUMPI PUSH1 0x0 CALLDATALOAD PUSH1 0xE0 SHR DUP1 PUSH4 0x11DD8845 EQ PUSH2 0x46 JUMPI DUP1 PUSH4 0x12A6F230 EQ PUSH2 0x77 JUMPI DUP1 PUSH4 0x30C6CAA4 EQ PUSH2 0xA7 JUMPI JUMPDEST PUSH1 0x0 DUP1 REVERT JUMPDEST PUSH2 0x60 PUSH1 0x4 DUP1 CALLDATASIZE SUB DUP2 ADD SWAP1 PUSH2 0x5B SWAP2 SWAP1 PUSH2 0x316 JUMP JUMPDEST PUSH2 0xC3 JUMP JUMPDEST PUSH1 0x40 MLOAD PUSH2 0x6E SWAP3 SWAP2 SWAP1 PUSH2 0x395 JUMP JUMPDEST PUSH1 0x40 MLOAD DUP1 SWAP2 SUB SWAP1 RETURN JUMPDEST PUSH2 0x91 PUSH1 0x4 DUP1 CALLDATASIZE SUB DUP2 ADD SWAP1 PUSH2 0x8C SWAP2 SWAP1 PUSH2 0x3EA JUMP JUMPDEST PUSH2 0x11E JUMP JUMPDEST PUSH1 0x40 MLOAD PUSH2 0x9E SWAP2 SWAP1 PUSH2 0x432 JUMP JUMPDEST PUSH1 0x40 MLOAD DUP1 SWAP2 SUB SWAP1 RETURN JUMPDEST PUSH2 0xC1 PUSH1 0x4 DUP1 CALLDATASIZE SUB DUP2 ADD SWAP1 PUSH2 0xBC SWAP2 SWAP1 PUSH2 0x44D JUMP JUMPDEST PUSH2 0x148 JUMP JUMPDEST STOP JUMPDEST PUSH1 0x0 DUP1 PUSH1 0x0 DUP1 DUP6 DUP6 PUSH1 0x40 MLOAD PUSH2 0xD9 SWAP3 SWAP2 SWAP1 PUSH2 0x4EC JUMP JUMPDEST SWAP1 DUP2 MSTORE PUSH1 0x20 ADD PUSH1 0x40 MLOAD DUP1 SWAP2 SUB SWAP1 KECCAK256 PUSH1 0x40 MLOAD DUP1 PUSH1 0x40 ADD PUSH1 0x40 MSTORE SWAP1 DUP2 PUSH1 0x0 DUP3 ADD SLOAD DUP2 MSTORE PUSH1 0x20 ADD PUSH1 0x1 DUP3 ADD SLOAD DUP2 MSTORE POP POP SWAP1 POP DUP1 PUSH1 0x0 ADD MLOAD DUP2 PUSH1 0x20 ADD MLOAD SWAP3 POP SWAP3 POP POP SWAP3 POP SWAP3 SWAP1 POP JUMP JUMPDEST PUSH1 0x0 PUSH1 0x1 PUSH1 0x0 DUP4 DUP2 MSTORE PUSH1 0x20 ADD SWAP1 DUP2 MSTORE PUSH1 0x20 ADD PUSH1 0x0 KECCAK256 PUSH1 0x0 SWAP1 SLOAD SWAP1 PUSH2 0x100 EXP SWAP1 DIV PUSH1 0xFF AND SWAP1 POP SWAP2 SWAP1 POP JUMP JUMPDEST PUSH1 0x0 DUP1 SHL DUP2 SUB PUSH2 0x18D JUMPI PUSH1 0x40 MLOAD PUSH32 0x8C379A000000000000000000000000000000000000000000000000000000000 DUP2 MSTORE PUSH1 0x4 ADD PUSH2 0x184 SWAP1 PUSH2 0x562 JUMP JUMPDEST PUSH1 0x40 MLOAD DUP1 SWAP2 SUB SWAP1 REVERT JUMPDEST PUSH1 0x1 PUSH1 0x0 DUP3 DUP2 MSTORE PUSH1 0x20 ADD SWAP1 DUP2 MSTORE PUSH1 0x20 ADD PUSH1 0x0 KECCAK256 PUSH1 0x0 SWAP1 SLOAD SWAP1 PUSH2 0x100 EXP SWAP1 DIV PUSH1 0xFF AND ISZERO PUSH2 0x1EE JUMPI PUSH1 0x40 MLOAD PUSH32 0x8C379A000000000000000000000000000000000000000000000000000000000 DUP2 MSTORE PUSH1 0x4 ADD PUSH2 0x1E5 SWAP1 PUSH2 0x5CE JUMP JUMPDEST PUSH1 0x40 MLOAD DUP1 SWAP2 SUB SWAP1 REVERT JUMPDEST PUSH1 0x40 MLOAD DUP1 PUSH1 0x40 ADD PUSH1 0x40 MSTORE DUP1 DUP3 DUP2 MSTORE PUSH1 0x20 ADD TIMESTAMP DUP2 MSTORE POP PUSH1 0x0 DUP5 DUP5 PUSH1 0x40 MLOAD PUSH2 0x215 SWAP3 SWAP2 SWAP1 PUSH2 0x4EC JUMP JUMPDEST SWAP1 DUP2 MSTORE PUSH1 0x20 ADD PUSH1 0x40 MLOAD DUP1 SWAP2 SUB SWAP1 KECCAK256 PUSH1 0x0 DUP3 ADD MLOAD DUP2 PUSH1 0x0 ADD SSTORE PUSH1 0x20 DUP3 ADD MLOAD DUP2 PUSH1 0x1 ADD SSTORE SWAP1 POP POP PUSH1 0x1 DUP1 PUSH1 0x0 DUP4 DUP2 MSTORE PUSH1 0x20 ADD SWAP1 DUP2 MSTORE PUSH1 0x20 ADD PUSH1 0x0 KECCAK256 PUSH1 0x0 PUSH2 0x100 EXP DUP2 SLOAD DUP2 PUSH1 0xFF MUL NOT AND SWAP1 DUP4 ISZERO ISZERO MUL OR SWAP1 SSTORE POP PUSH32 0xECFBFE8F27308A9DC537FB13D731DBBB58303324EDB1EFDC8381CFD433162363 DUP4 DUP4 DUP4 TIMESTAMP PUSH1 0x40 MLOAD PUSH2 0x29A SWAP5 SWAP4 SWAP3 SWAP2 SWAP1 PUSH2 0x62C JUMP JUMPDEST PUSH1 0x40 MLOAD DUP1 SWAP2 SUB SWAP1 LOG1 POP POP POP JUMP JUMPDEST PUSH1 0x0 DUP1 REVERT JUMPDEST PUSH1 0x0 DUP1 REVERT JUMPDEST PUSH1 0x0 DUP1 REVERT JUMPDEST PUSH1 0x0 DUP1 REVERT JUMPDEST PUSH1 0x0 DUP1 REVERT JUMPDEST PUSH1 0x0 DUP1 DUP4 PUSH1 0x1F DUP5 ADD SLT PUSH2 0x2D6 JUMPI PUSH2 0x2D5 PUSH2 0x2B1 JUMP JUMPDEST JUMPDEST DUP3 CALLDATALOAD SWAP1 POP PUSH8 0xFFFFFFFFFFFFFFFF DUP2 GT ISZERO PUSH2 0x2F3 JUMPI PUSH2 0x2F2 PUSH2 0x2B6 JUMP JUMPDEST JUMPDEST PUSH1 0x20 DUP4 ADD SWAP2 POP DUP4 PUSH1 0x1 DUP3 MUL DUP4 ADD GT ISZERO PUSH2 0x30F JUMPI PUSH2 0x30E PUSH2 0x2BB JUMP JUMPDEST JUMPDEST SWAP3 POP SWAP3 SWAP1 POP JUMP JUMPDEST PUSH1 0x0 DUP1 PUSH1 0x20 DUP4 DUP6 SUB SLT ISZERO PUSH2 0x32D JUMPI PUSH2 0x32C PUSH2 0x2A7 JUMP JUMPDEST JUMPDEST PUSH1 0x0 DUP4 ADD CALLDATALOAD PUSH8 0xFFFFFFFFFFFFFFFF DUP2 GT ISZERO PUSH2 0x34B JUMPI PUSH2 0x34A PUSH2 0x2AC JUMP JUMPDEST JUMPDEST PUSH2 0x357 DUP6 DUP3 DUP7 ADD PUSH2 0x2C0 JUMP JUMPDEST SWAP3 POP SWAP3 POP POP SWAP3 POP SWAP3 SWAP1 POP JUMP JUMPDEST PUSH1 0x0 DUP2 SWAP1 POP SWAP2 SWAP1 POP JUMP JUMPDEST PUSH2 0x376 DUP2 PUSH2 0x363 JUMP JUMPDEST DUP3 MSTORE POP POP JUMP JUMPDEST PUSH1 0x0 DUP2 SWAP1 POP SWAP2 SWAP1 POP JUMP JUMPDEST PUSH2 0x38F DUP2 PUSH2 0x37C JUMP JUMPDEST DUP3 MSTORE POP POP JUMP JUMPDEST PUSH1 0x0 PUSH1 0x40 DUP3 ADD SWAP1 POP PUSH2 0x3AA PUSH1 0x0 DUP4 ADD DUP6 PUSH2 0x36D JUMP JUMPDEST PUSH2 0x3B7 PUSH1 0x20 DUP4 ADD DUP5 PUSH2 0x386 JUMP JUMPDEST SWAP4 SWAP3 POP POP POP JUMP JUMPDEST PUSH2 0x3C7 DUP2 PUSH2 0x363 JUMP JUMPDEST DUP2 EQ PUSH2 0x3D2 JUMPI PUSH1 0x0 DUP1 REVERT JUMPDEST POP JUMP JUMPDEST PUSH1 0x0 DUP2 CALLDATALOAD SWAP1 POP PUSH2 0x3E4 DUP2 PUSH2 0x3BE JUMP JUMPDEST SWAP3 SWAP2 POP POP JUMP JUMPDEST PUSH1 0x0 PUSH1 0x20 DUP3 DUP5 SUB SLT ISZERO PUSH2 0x400 JUMPI PUSH2 0x3FF PUSH2 0x2A7 JUMP JUMPDEST JUMPDEST PUSH1 0x0 PUSH2 0x40E DUP5 DUP3 DUP6 ADD PUSH2 0x3D5 JUMP JUMPDEST SWAP2 POP POP SWAP3 SWAP2 POP POP JUMP JUMPDEST PUSH1 0x0 DUP2 ISZERO ISZERO SWAP1 POP SWAP2 SWAP1 POP JUMP JUMPDEST PUSH2 0x42C DUP2 PUSH2 0x417 JUMP JUMPDEST DUP3 MSTORE POP POP JUMP JUMPDEST PUSH1 0x0 PUSH1 0x20 DUP3 ADD SWAP1 POP PUSH2 0x447 PUSH1 0x0 DUP4 ADD DUP5 PUSH2 0x423 JUMP JUMPDEST SWAP3 SWAP2 POP POP JUMP JUMPDEST PUSH1 0x0 DUP1 PUSH1 0x0 PUSH1 0x40 DUP5 DUP7 SUB SLT ISZERO PUSH2 0x466 JUMPI PUSH2 0x465 PUSH2 0x2A7 JUMP JUMPDEST JUMPDEST PUSH1 0x0 DUP5 ADD CALLDATALOAD PUSH8 0xFFFFFFFFFFFFFFFF DUP2 GT ISZERO PUSH2 0x484 JUMPI PUSH2 0x483 PUSH2 0x2AC JUMP JUMPDEST JUMPDEST PUSH2 0x490 DUP7 DUP3 DUP8 ADD PUSH2 0x2C0 JUMP JUMPDEST SWAP4 POP SWAP4 POP POP PUSH1 0x20 PUSH2 0x4A3 DUP7 DUP3 DUP8 ADD PUSH2 0x3D5 JUMP JUMPDEST SWAP2 POP POP SWAP3 POP SWAP3 POP SWAP3 JUMP JUMPDEST PUSH1 0x0 DUP2 SWAP1 POP SWAP3 SWAP2 POP POP JUMP JUMPDEST DUP3 DUP2 DUP4 CALLDATACOPY PUSH1 0x0 DUP4 DUP4 ADD MSTORE POP POP POP JUMP JUMPDEST PUSH1 0x0 PUSH2 0x4D3 DUP4 DUP6 PUSH2 0x4AD JUMP JUMPDEST SWAP4 POP PUSH2 0x4E0 DUP4 DUP6 DUP5 PUSH2 0x4B8 JUMP JUMPDEST DUP3 DUP5 ADD SWAP1 POP SWAP4 SWAP3 POP POP POP JUMP JUMPDEST PUSH1 0x0 PUSH2 0x4F9 DUP3 DUP5 DUP7 PUSH2 0x4C7 JUMP JUMPDEST SWAP2 POP DUP2 SWAP1 POP SWAP4 SWAP3 POP POP POP JUMP JUMPDEST PUSH1 0x0 DUP3 DUP3 MSTORE PUSH1 0x20 DUP3 ADD SWAP1 POP SWAP3 SWAP2 POP POP JUMP JUMPDEST PUSH32 0x496E76616C696420686173680000000000000000000000000000000000000000 PUSH1 0x0 DUP3 ADD MSTORE POP JUMP JUMPDEST PUSH1 0x0 PUSH2 0x54C PUSH1 0xC DUP4 PUSH2 0x505 JUMP JUMPDEST SWAP2 POP PUSH2 0x557 DUP3 PUSH2 0x516 JUMP JUMPDEST PUSH1 0x20 DUP3 ADD SWAP1 POP SWAP2 SWAP1 POP JUMP JUMPDEST PUSH1 0x0 PUSH1 0x20 DUP3 ADD SWAP1 POP DUP2 DUP2 SUB PUSH1 0x0 DUP4 ADD MSTORE PUSH2 0x57B DUP2 PUSH2 0x53F JUMP JUMPDEST SWAP1 POP SWAP2 SWAP1 POP JUMP JUMPDEST PUSH32 0x4475706C69636174652068617368000000000000000000000000000000000000 PUSH1 0x0 DUP3 ADD MSTORE POP JUMP JUMPDEST PUSH1 0x0 PUSH2 0x5B8 PUSH1 0xE DUP4 PUSH2 0x505 JUMP JUMPDEST SWAP2 POP PUSH2 0x5C3 DUP3 PUSH2 0x582 JUMP JUMPDEST PUSH1 0x20 DUP3 ADD SWAP1 POP SWAP2 SWAP1 POP JUMP JUMPDEST PUSH1 0x0 PUSH1 0x20 DUP3 ADD SWAP1 POP DUP2 DUP2 SUB PUSH1 0x0 DUP4 ADD MSTORE PUSH2 0x5E7 DUP2 PUSH2 0x5AB JUMP JUMPDEST SWAP1 POP SWAP2 SWAP1 POP JUMP JUMPDEST PUSH1 0x0 PUSH1 0x1F NOT PUSH1 0x1F DUP4 ADD AND SWAP1 POP SWAP2 SWAP1 POP JUMP JUMPDEST PUSH1 0x0 PUSH2 0x60B DUP4 DUP6 PUSH2 0x505 JUMP JUMPDEST SWAP4 POP PUSH2 0x618 DUP4 DUP6 DUP5 PUSH2 0x4B8 JUMP JUMPDEST PUSH2 0x621 DUP4 PUSH2 0x5EE JUMP JUMPDEST DUP5 ADD SWAP1 POP SWAP4 SWAP3 POP POP POP JUMP JUMPDEST PUSH1 0x0 PUSH1 0x60 DUP3 ADD SWAP1 POP DUP2 DUP2 SUB PUSH1 0x0 DUP4 ADD MSTORE PUSH2 0x647 DUP2 DUP7 DUP9 PUSH2 0x5FF JUMP JUMPDEST SWAP1 POP PUSH2 0x656 PUSH1 0x20 DUP4 ADD DUP6 PUSH2 0x36D JUMP JUMPDEST PUSH2 0x663 PUSH1 0x40 DUP4 ADD DUP5 PUSH2 0x386 JUMP JUMPDEST SWAP6 SWAP5 POP POP POP POP POP JUMP INVALID LOG2 PUSH5 0x6970667358 0x22 SLT KECCAK256 0xAA SWAP3 0xC0 GT CREATE PUSH1 0x94 0xF6 PUSH17 0x1A388C0725F8F4F703B4533AE44842A04C 0x4D DUP4 0xEC PUSH28 0x8AE164736F6C63430008140033000000000000000000000000000000 "
				},
				"gasEstimates": {
					"creation": {
						"codeDepositCost": "339600",
						"executionCost": "380",
						"totalCost": "339980"
					},
					"external": {
						"getRecord(string)": "infinite",
						"isHashStored(bytes32)": "2822",
						"storeHash(string,bytes32)": "infinite"
					}
				},
				"methodIdentifiers": {
					"getRecord(string)": "11dd8845",
					"isHashStored(bytes32)": "12a6f230",
					"storeHash(string,bytes32)": "30c6caa4"
				}
			},
			"storageLayout": {
				"storage": [
					{
						"astId": 11,
						"contract": "PublicationRegistry.sol:PublicationRegistryV2",
						"label": "publicationRecords",
						"offset": 0,
						"slot": "0",
						"type": "t_mapping(t_string_memory_ptr,t_struct(Record)6_storage)"
					},
					{
						"astId": 15,
						"contract": "PublicationRegistry.sol:PublicationRegistryV2",
						"label": "hashExists",
						"offset": 0,
						"slot": "1",
						"type": "t_mapping(t_bytes32,t_bool)"
					}
				],
				"types": {
					"t_bool": {
						"encoding": "inplace",
						"label": "bool",
						"numberOfBytes": "1"
					},
					"t_bytes32": {
						"encoding": "inplace",
						"label": "bytes32",
						"numberOfBytes": "32"
					},
					"t_mapping(t_bytes32,t_bool)": {
						"encoding": "mapping",
						"key": "t_bytes32",
						"label": "mapping(bytes32 => bool)",
						"numberOfBytes": "32",
						"value": "t_bool"
					},
					"t_mapping(t_string_memory_ptr,t_struct(Record)6_storage)": {
						"encoding": "mapping",
						"key": "t_string_memory_ptr",
						"label": "mapping(string => struct PublicationRegistryV2.Record)",
						"numberOfBytes": "32",
						"value": "t_struct(Record)6_storage"
					},
					"t_string_memory_ptr": {
						"encoding": "bytes",
						"label": "string",
						"numberOfBytes": "32"
					},
					"t_struct(Record)6_storage": {
						"encoding": "inplace",
						"label": "struct PublicationRegistryV2.Record",
						"members": [
							{
								"astId": 3,
								"contract": "PublicationRegistry.sol:PublicationRegistryV2",
								"label": "hash",
								"offset": 0,
								"slot": "0",
								"type": "t_bytes32"
							},
							{
								"astId": 5,
								"contract": "PublicationRegistry.sol:PublicationRegistryV2",
								"label": "timestamp",
								"offset": 0,
								"slot": "1",
								"type": "t_uint256"
							}
						],
						"numberOfBytes": "64"
					},
					"t_uint256": {
						"encoding": "inplace",
						"label": "uint256",
						"numberOfBytes": "32"
					}
				}
			},
			"userdoc": {
				"kind": "user",
				"methods": {},
				"version": 1
			}
		}
	}
}